:020000040800F2
:10000000E04A002051030008DB2400081D220008FC
:10001000D924000891200008C12D0008000000002C
:10002000000000000000000000000000B90200080D
:100030004F21000800000000FD020008C92A000846
:100040006B0300086B0300086B0300086B030008D8
:100050006B0300086B0300086B0300086B030008C8
:100060006B0300086B0300086B0300086B030008B8
:100070006B0300086B0300086B0300086B030008A8
:100080006B0300086B0300086B0300086B03000898
:100090006B0300086B0300086B0300086B03000888
:1000A0006B0300086B0300086B0300086B03000878
:1000B0006B0300086B0300086B0300086B03000868
:1000C0006B0300086B0300086B0300086B03000858
:1000D0006B0300082D2B0008912B00086B03000810
:1000E0006B0300086B0300086B0300086B03000838
:1000F0006B0300086B0300086B0300086B03000828
:100100006B0300086B0300086B0300086B03000817
:100110006B0300086B0300086B0300086B03000807
:100120006B0300086B0300086B0300086B030008F7
:1001300000F002F800F0B0F80AA090E8000C824449
:100140008344AAF10107DA4501D100F0A5F8AFF226
:10015000090EBAE80F0013F0010F18BFFB1A43F0A5
:1001600001031847A8610000C86100000A444FF06D
:10017000000C10F8013B13F0070408BF10F8014B06
:100180001D1108BF10F8015B641E05D010F8016B4B
:10019000641E01F8016BF9D113F0080F1EBF10F8AF
:1001A000014BAD1C0C1B09D16D1E58BF01F801CBD2
:1001B000FAD505E014F8016B01F8016B6D1EF9D555
:1001C0009142D6D37047000000230024002500266A
:1001D000103A28BF78C1FBD8520728BF30C148BFAA
:1001E0000B6070476E2900F02784702900F091851C
:1001F000662905F0A387652905F0A087672905F022
:100200009D876129AFF3008003681B0A28BF41F076
:100210008001692900F04281642900F03F8175293D
:1002200000F03C816F2900F01E85782900F05D8583
:10023000E92900F0B984E42900F0B684F52900F03A
:10024000B384EF2900F01B85F82900F05C85036872
:10025000DB0928BF41F08001632900F0288473295D
:1002600000F02D84E32901F02E80F32901F0338082
:10027000002070471FB501F03FFA04000020002164
:1002800005F088FD401C60600020002105F06CFD39
:10029000E0601FBD10B510BD01F000FA1146FFF778
:1002A000E9FF03F0FDF901F0DDFA03B4FFF7F2FF17
:1002B00003BC03F0B0F80000224B19680868B0E8EE
:1002C000F00F80F30988BFF36F8F4FF0000080F3C9
:1002D00011884EF00D0E70470000000006480068BF
:1002E000006880F3088862B661B6BFF34F8FBFF332
:1002F0006F8F00DF00BF00BF08ED00E0EFF3098063
:10030000BFF36F8F0F4B1A6820E9F00F106008B52C
:100310004FF0500080F31188BFF34F8FBFF36F8F02
:1003200004F0EAFE4FF0000080F31188BDE80840B9
:1003300019680868B0E8F00F80F30988BFF36F8F81
:10034000704700BF5C070020EFF305807047000096
:100350000948804709480047FEE7FEE7FEE7FEE759
:10036000FEE7FEE7FEE7FEE7FEE7FEE70448054995
:10037000054A064B70470000DD2A000831010008DD
:10038000E0440020E04A0020E0460020E046002053
:10039000704700001CB50C46064B7B446946009034
:1003A000204600F062FB04460020694600F070FB26
:1003B00020461CBDF30600000FB4044910B503AA83
:1003C000029800F081FB10BC5DF814FB440700208C
:1003D0000FB41CB5084B06AA7B44694600900598EB
:1003E00000F043FB04460020694600F051FB204624
:1003F0001CBC5DF814FB0000B506000070B5044697
:1004000085690068C10601D5302600E02026C007B6
:1004100007D070BDD4E9012130469047206A401CC6
:1004200020626D1EF6D570BD70B5044685690078F2
:10043000C00707D170BDD4E9012120209047206A70
:10044000401C20626D1EF6D570BD70B50C46054689
:10045000012A05D02878800600D5EA69002302E049
:10046000012305E05B1C934202D2E05C0028F9D135
:10047000A869E618C01AA861286A184428622846A4
:10048000FFF7BCFF04E0D5E9012114F8010B904708
:10049000B442F8D32846FFF7C7FF70BD2DE9F041FD
:1004A0000646002410687529314616A510D000F0C4
:1004B00058FA002802DA404213A507E031688A079B
:1004C00001D512A502E0490704D511A5012401E0D8
:1004D00000F050FA00210A2206F1240709E0B0FBDF
:1004E000F2FCB0FBF2F302FB1C00303078541846EB
:1004F000491C0028F3D123462A463046BDE8F04186
:1005000000F041BA000000002D0000002B000000A8
:10051000200000002DE9F05F894604464FF0000AF4
:10052000DFF874B1FB44C0F820A02046E16888479A
:10053000002874D0252806D0D4E901219047206AEC
:10054000401C2062F1E700265F462046E1688847AC
:100550002028054607DB312D05D2781910F8200C2C
:1005600008B10643F1E7B00701D526F00406C4F848
:100570001CA00027C4F818A02A2D09D0284602F094
:1005800043FF38B304EB8708303DC8F8185019E032
:1005900059F8041B204604EB87029161E168884703
:1005A000012F054618D1E069002820DA26F0200640
:1005B0001DE0D8F8180000EB800005EB4000303853
:1005C000C8F818002046E1688847054602F01CFF7D
:1005D0000028EED1012F0AD02E2D08D12046E16847
:1005E00088477F1C0546022F46F02006C4DBA06921
:1005F000002803DA404246F00106A061F00701D06E
:1006000026F010066C2D0BD0682D09D04C2D39D05A
:100610006A2D35D0742D35D07A2D33D016E038E0E0
:10062000E1682F4620468847B842054609D16C2F1D
:1006300026D04FF48060E16806432046884705468F
:1006400004E06C2F1AD04FF4807006430DB3A5F16F
:100650004100192802D8203546F400664A4629464A
:10066000204626604E46FFF7BDFD80B101280BD025
:10067000F61D26F0070000F1080956E74020E4E7E0
:100680008020D8E70020D6E706F104094DE7284688
:1006900052E7206ABDE8F09F0E5D00000FB400B580
:1006A0008DB010A9099000910B904FF0FF300A9087
:1006B00000200C90064878440690064878446A4624
:1006C00007900F9909A800F035FB0DB05DF814FBF9
:1006D0009B060000B30600002DE9FF5F4FF0000805
:1006E0009946144646469169D2E901A7DDF838B02B
:1006F00001988847054659EA0B0005D009E0A16931
:100700000198761C88470546216A284688470028B4
:10071000F5D1681C03D05FEACA7005D015E04FF030
:10072000FF3004B0BDE8F09F2068011D2160D0F8C3
:1007300000800AE05FEACA7001D108F8015BA16994
:10074000761C01987F1E88470546002F1ADD681C1D
:1007500018D0B9F1000F0DD0E81705EBD0604211A9
:1007600020F01F0059F822102A1A0120904001425F
:10077000E0D107E0BBF1000FDCD12846216A8847B1
:100780000028D7D0E16901988847BBF1000F07D155
:10079000002E05DD5FEACA7002D1002188F8001042
:1007A000A068B84203DDBBF1000F03D017B16FF0B2
:1007B0000100B6E73046B4E7401ECAB210F8011F88
:1007C0008A4202D00029F9D10020704730B5054691
:1007D0000B462A4613F8014B12F8010B08B1A04250
:1007E000F8D01CB1002802D06D1CF1E7284630BDBE
:1007F00010B5431C02E010F8011B71B18107FAD15A
:100800004FF0013202C88C1A8C4314EAC211F9D09D
:10081000C01A0A0603D0C01E10BDC01A10BD0A04BB
:1008200001D0801E10BD0902FCD0401E10BD032A5D
:1008300040F2308010F0030C00F0158011F8013BFD
:10084000BCF1020F624498BF11F801CB00F8013BE4
:1008500038BF11F8013BA2F1040298BF00F801CBA8
:1008600038BF00F8013B11F0030300F09382083A0F
:10087000C0F0088051F8043B083A51F804CBA0E8D6
:100880000810F5E7121D5CBF51F8043B40F8043B2B
:10089000AFF30080D20724BF11F8013B11F801CB60
:1008A00048BF11F8012B24BF00F8013B00F801CB31
:1008B00048BF00F8012B704702F0FF0343EA032210
:1008C00042EA024200F002B84FF000020429C0F0F0
:1008D000128010F0030C00F01B80CCF1040CBCF172
:1008E000020F18BF00F8012BA8BF20F8022BA1EBC4
:1008F0000C0100F00DB85FEAC17C24BF00F8012BA9
:1009000000F8012B48BF00F8012B70474FF00002A0
:1009100000B5134694469646203922BFA0E80C50F5
:10092000A0E80C50B1F12001BFF4F7AF090728BFD0
:10093000A0E80C5048BF0CC05DF804EB890028BF4C
:1009400040F8042B08BF704748BF20F8022B11F075
:10095000804F18BF00F8012B7047704770477047F1
:10096000704709684A0501D540B27047C905FCD5F2
:1009700000B2704709684A0501D5C0B27047C90581
:10098000FCD580B270472DE9F0470D469946924656
:10099000044600F124080168880604D5E06921F0C6
:1009A0001001216000E00120A84201DD471B00E0AA
:1009B0000027A1697A1902EB0900081AA0612078C2
:1009C000C00602D42046FFF719FD002608E0D4E94E
:1009D00001211AF806009047206A401C761C20620C
:1009E0004E45F4DB2078C0060AD52046FFF706FD09
:1009F00006E0D4E9012130209047206A401C2062A3
:100A0000381EA7F10107F4DC07E0D4E9012118F84A
:100A100005009047206A401C2062281EA5F10105B0
:100A2000F3DC2046FFF700FD2078000602D5022007
:100A3000BDE8F0870120FBE711680268006A5305F2
:100A400001D508700AE0D30501D5088006E0130639
:100A500003D5C217C1E9000200E008600120704719
:100A600001694A1C02610878704700B58FB0CDE972
:100A700001310021059105497944CDE90310114662
:100A80006846FFF747FD0FB000BD0000E5FFFFFF20
:100A90000A6802F8010B0A60704710B5436913B188
:100AA000AFF3008001E0FFF7D0FC012010BD127809
:100AB00000F124010A7000224A700122EDE711685A
:100AC0004FF0FF32E9E70000074B70B50D467B445D
:100AD000FFF7CBFF0446284600F0BCFD10B14FF0F5
:100AE000FF3070BD204670BD3B2A00002DE9FF5F3E
:100AF00015468A460446DFF8AC80F8440027D8E95A
:100B000000103E46CDE9001010E03AF816106A4693
:100B100002A800F0A3FD411C07D02178890603D567
:100B2000E269391891420DD80744761C2078800676
:100B300002D5E069B84205DDAE42E6DB3AF81600C0
:100B40000028E2D1A069C01BA0612046FFF756FC37
:100B5000D8E90010CDE90010002017E03AF818108D
:100B60006A4602A800F07AFDB0F1FF3F81460BD043
:100B700000250DF1080B05E0D4E901211BF8050063
:100B800090476D1C4D45F7D308F10100B0428046F7
:100B9000E4DB206A384420622046FFF745FCBDE8CC
:100BA000FF9F00004A5700002DE9F0418046D21D0A
:100BB00022F007020025D2E90002F52915A614D07B
:100BC000011E72F1000106DA0023D0EB030063EB93
:100BD000020211A608E0D8F800108B0701D50FA675
:100BE00002E0490701D50EA601251146002408F1AF
:100BF000240704E000F000F930323A55641C50EA52
:100C00000102F7D12B46324621464046BDE8F0416D
:100C1000FFF7B9BE000000002D0000002B0000000F
:100C20002000000030B4002100F1240408E002F0AC
:100C30000705D208303542EA4372DB086554491C87
:100C400052EA0305F3D10468002310A2250707D553
:100C5000A40600D421B1C46901230DA2641EC4619D
:100C600030BCFFF790BE10B5044621461068FFF770
:100C700081FE02462046BDE810400023D2E7D21D87
:100C800022F00701D1E90023CCE7000000000000BA
:100C900030000000F0B40D460188090502D5214C52
:100CA0007C4402E01F4C7C440E34002100F12406F9
:100CB00008E002F00F071209E75D42EA03721B0920
:100CC0007754491C52EA0307F3D102780023120734
:100CD00004D5702D06D009B1022311342246F0BC90
:100CE000FFF751BE01231034F8E770B504460D46F6
:100CF00021461068FFF73EFE024629462046BDE821
:100D000070400023C6E7D21D22F00703D3E9002379
:100D1000C0E70368126843F0200303600823C3613F
:100D20000023B7E7AC550000026811441378016056
:100D300018467047D16005497944516104497944A6
:100D4000116200211161114600F0CABAEDFFFFFFE8
:100D500041010000426842B1016811F8013B23B132
:100D6000521EC0E90012184670470121C160881E5A
:100D7000704742685AB1C368016843B983688B42BF
:100D800005D0491E521CC0E90012002070474FF0E8
:100D9000FF30704710B5203AC0F00B80B1E8185012
:100DA000203AA0E81850B1E81850A0E81850BFF455
:100DB000F5AF5FEA027C24BFB1E81850A0E81850F4
:100DC00044BF18C918C0BDE810405FEA827C24BF48
:100DD00051F8043B40F8043B08BF7047D20728BFD6
:100DE00031F8023B48BF11F8012B28BF20F8023B25
:100DF00048BF00F8012B704730B5B0F10A024FEA46
:100E0000900E71F100034EEA817EB0EB0E0061EBB3
:100E100091014FEA101E4EEA017E10EB0E0041EBED
:100E200011114FEA102E4EEA016E10EB0E0041EB4D
:100E300011214FEA104E4EEA014E10EB0E0041EB2D
:100E40001141401841F100014FEAD00040EA4170E1
:100E50004FEAD10110EB80054FEA810444EA907417
:100E600044EB01046D1944EB0404521BA3414FF001
:100E7000000348BF0A3200D530BD401C41F10001DB
:100E800030BD10B5044600F02FFC0068005D00F096
:100E9000010010BD70472DE9FF4F0C461E464FF074
:100EA000FF378BB0D2E90001DDF860800A908A46F6
:100EB000C1F30A5505B93D46002108464FF0000030
:100EC000BAF1000F00F4400005DA00EB80004FF4A7
:100ED000400101EA50004FEA9059B9F1010F00DDDD
:100EE000B9460A9850EA4A000ED044F61050A5F2CE
:100EF000FF3545432F14B8F1000F1ED07542291E4F
:100F00001EDDC9F100021CE0B8F1010F4FF0000036
:100F100001D0302103E0F24305E02154401CB042EF
:100F2000FBDB30460022002121540B99C1F80880D8
:100F3000C1E900200FB0BDE8F08FBD1B6D1CDEE7DE
:100F40004A4600DA694206A800F01AFC06AB93E8AC
:100F5000070003AB83E8070050460A9900F0D0FC75
:100F60008DE80700A0F500501F3800900398002D71
:100F70000ADD42F21F014A460844002303A90390F8
:100F8000684600F039FF09E0A0F500504A461F38D6
:100F9000002303A90390684600F043FF8DE8070093
:100FA0000004000C03D04FF0FF30410800E0104671
:100FB000B8F1000F03D00022009215461EE0751E06
:100FC00005D4FFF719FF303262556D1EF9D5B346CF
:100FD0000122084302D000227F1C04E02078302840
:100FE00001D100227F1E002A099784D01DE0112D17
:100FF00007DAFFF701FF303262556D1C50EA01023B
:10100000F5D1084302D00098C8B10EE00021681E57
:1010100005E0235C625C63542254401E491C8142FB
:10102000F7DBAB46A81B401E0990002004F80B001C
:101030000B98099AC0F80880C0E9002B7AE71126BE
:101040004FF0000857E72DE9F04F88460446D21DBF
:1010500022F0070191B0D1E90001CDE90A0102F0C7
:10106000BFF902460B98C00F01D02D2007E0206881
:10107000810701D52B2002E0202101EAC000032ACC
:10108000099001D0072A05DB03464146204600F0BF
:1010900037FB0BE12078800601D5E06900E00620EF
:1010A000B8F1650F814606D0B8F1660F18D0B8F1D7
:1010B000670F70D131E00020B9F1110F009001DB12
:1010C000112301E009F101030AAA01A90CA8FFF705
:1010D000E2FEDDE90C70002609F10105834647E0D8
:1010E00001204B4600904FF000470AAA01A90CA826
:1010F000FFF7D1FEDDE90DB00C995D46002610B971
:1011000009F101000D18B9EB050003D4C0F1FF3659
:1011100009F10105A5EB09002BE0B9F1010F01DA96
:101120004FF001090020B9F1110F0090484601DD90
:10113000112300E003460AAA01A90CA8FFF7ABFEA1
:10114000DDE90C704D4600268346207800070AD45E
:10115000AB4500DA5D4601A8012D04DD411911F807
:10116000011C302907D04F4502DA17F1040F04DAC9
:10117000012082460FE06D1EEEE7002F02DCED1B22
:101180003E4403E0781CA84200DD7D1CB81B00F142
:10119000010A4FF000472078000703D4AA4501DB7D
:1011A0004FF0FF3A0021B7F1004F0DF143088DF8E1
:1011B000431024D002202B23002F01DA7F422D235D
:1011C0000A21021EA0F1010000DC5FB197FBF1FCD7
:1011D00097FBF1F201FB1C7C17460CF1300C08F870
:1011E00001CDEEE7A8F1010003702188090501D5C2
:1011F000452100E06521A0F1010800F8011C0998D3
:101200000FA9A1EB0807FF1D00B10120411901EB57
:10121000EA70A1693844081A401EA0612078C0060F
:1012200002D42046FFF7EAF8099828B1D4E9012151
:101230009047206A401C20622078C00622D52046B4
:10124000FFF7DCF81EE0002E04DBB34502DD01A849
:10125000805D00E03020D4E901219047206A401CE5
:101260002062761CAAF101005FEA000A0AD100F0B0
:1012700043FAC0680168405CD4E901219047206AC4
:10128000401C2062281EA5F10105DCDC07E0D4E942
:10129000012118F8010B9047206A401C2062381E7B
:1012A000A7F10107F3DC2046FFF7BEF8032011B0D9
:1012B00041E610B5436913B1AFF3008001E0FFF7D9
:1012C00015FC012010BD128800F124018284002247
:1012D000C2840122EDE711684FF0FF32E9E7000018
:1012E0002DE9F34F4FF0000A0C4656468DB0012011
:1012F0000C9001F10C000B9062690B980121904752
:10130000051E2DD0252D2CD0216A8847C0B16269D9
:101310000B9801219047216A88470028F7D162691C
:10132000411E0B98904700E0761CA1690D988847F4
:10133000216A88470028F7D1E1690D988847DBE7E3
:10134000A1690D988847A842074601D1761CD3E7CA
:10135000E1690D9888477F1C02D1BAF1000F6FD068
:101360006BE162690B9800273D46394690472A2871
:1013700004D162690B98012190470125DFF8D082E2
:1013800062690B9801219047A0F130010A290AD225
:101390004745E5DC07EB870100EB4107303FDFD431
:1013A00045F01005ECE7E90601D46FF000476C2822
:1013B0000AD04C2814D0682815D06A280DD074287B
:1013C0001CD07A281AD01DE062690B980121904741
:1013D0006C2802D045F0040514E045F002050DE04C
:1013E00045F020050AE062690B98012190476828C2
:1013F00002D045F0080505E045F4006562690B98E8
:1014000001219047C4E9015765283DD019DC5828CF
:101410007AD00CDC452837D004DC252826D041289A
:101420009ED131E046282FD0472899D12CE05B2867
:1014300077D0612828D063287CD0642823D15AE053
:10144000F6E06F2848D008DC66281DD067281BD03E
:10145000692821D06E2816D127E0702845D073283E
:1014600068D0752847D078280DD14DE0A1690D9836
:101470008847252805463FF469AFE1690D988847FC
:101480006D1C3FF46AAFD8E00D9923466A466FF0B1
:101490000100AFF30080C5E045F0400023464FF067
:1014A00000026060A80736D43EE0E8077FF447AF4B
:1014B0002068011D21600068290501D506701BE721
:1014C000290701D5068017E7A90703D5F117C0E959
:1014D000006111E706600FE745F0400023464FF03A
:1014E00008026060A80716D41EE040F60E0125EA47
:1014F0000100606016E045F0400023464FF00A020C
:101500006060A80707D40FE045F040006060A807BE
:1015100008D5234610220D996FF00100AFF300802B
:1015200080E007E0102223460D996FF00100AFF331
:10153000008077E04FF0000963284F46C8464B46CD
:10154000CB4602D05B2806D038E0E80601D4012063
:10155000A060012732E06269D4F80CB00B98012139
:1015600090475E2807D14FF0010949466269D4F8D7
:101570000CB00B989047216939B900210A4603AB9A
:1015800043F82120491C0829FADBD8B3216949B363
:1015900008F1010862690B98012190475D28F4D198
:1015A000B9F1000F09D0002003A951F82020D2433F
:1015B00041F82020401C0828F7DB03AB20690028F5
:1015C00020794FEA40701ED05B462246CDF800805D
:1015D000CDE901970D9900286FF0010020DAAFF3F3
:1015E00000801FE0C11703AA00EBD1614B1121F06D
:1015F0001F0102EB8302411A136801208840034354
:101600001360C7E719E00D99224600286FF001002A
:10161000009702DAAFF3008004E0FFF75DF801E025
:10162000AFF3008000280ADA401C06D10C9820B1E4
:101630004FF0FF300FB0BDE8F08F5046FAE7E907F2
:1016400001D10AF1010A064400200C9054E6000082
:10165000CCCCCC0C007B00F08000704770B51646F7
:101660000C46054600F040F8036893F80101012894
:1016700006D0FF2C0FD8185D68B101202C7070BD0A
:10168000D3F807013246214603F2071303442846E4
:10169000BDE8704018474FF0FF3070BD754600F050
:1016A000EBF8AE4605006946534620F00700854634
:1016B00018B020B5FEF75AFEBDE820404FF00006F6
:1016C0004FF000074FF000084FF0000B21F007012A
:1016D000AC46ACE8C009ACE8C009ACE8C009ACE86D
:1016E000C0098D467047000010B500F005F8001DD8
:1016F00010BD00BFA1460000004870479C44002078
:101700002DE9F0411F46044603260168072A01F42B
:10171000006004DB08B116A505E016A503E008B1DA
:1017200015A500E015A521F010002060A069C01EDD
:10173000A0610FB1401EA0612046FEF75FFE4FB1D1
:10174000D4E9012138469047206A401C2062C01C21
:10175000206206E0206AFAE7D4E9012115F8010BBE
:101760009047761EF8D22046FEF75EFEBDE8F08177
:101770004E414E006E616E00494E4600696E660035
:101780002DE9F047814616468AB0354878440DC8A1
:101790008DE80D0032487844801C03AC0DC884E805
:1017A0000D0041F69B300844372190FBF1F290FB8D
:1017B000F1F5A5F1800501FB12041B3C02D5644242
:1017C000012000E00020DFF898A080460027FA44BE
:1017D000AAF1BE0A0EE0E0070AD03246684607EBDF
:1017E000470101230AEB810100F01BFB8DE8070094
:1017F00064107F1C002CEED1194F7F44AE3F19E0DE
:10180000E80715D007EB04100DF1180A90E80E0058
:101810008AE80E00C068F04201D19819089032465B
:10182000012306A903A800F0FCFA03AB83E8070034
:101830006D10641C002DE3D14FF001033246694660
:10184000B8F1000F03A802D000F0D6FA01E000F0D2
:10185000E8FAC9E90001C9F808200AB0BDE8F08734
:10186000644B000010B50446AFF300802046BDE88D
:101870001040FEF71ABD0000004870477C4400206D
:101880004FF0013C50F8042B51F8043B9A4221D10F
:10189000A2EB0C03934313EACC1317D150F8042B9B
:1018A00051F8043B9A4215D1A2EB0C03934313EA7F
:1018B000CC130BD150F8042B51F8043B9A4209D1B8
:1018C000A2EB0C03934313EACC13DBD04FF00000E0
:1018D000704700BFD01A01BAB1FA81F101F01801C6
:1018E00022FA01F0CB40C1F12001DBB2C0B2C01A34
:1018F0002CFA01F3D11A914311EAC311E6D17047D2
:101900005FEA400C08BF91F0000F4FEA8C234FEACA
:10191000C12243EA51514FEA1C5018BF00F5F04074
:101920004FEA300018BF41F000415FEA6C5C00F004
:101930002980BCF1FF3F08BF40F080407047130C86
:1019400006BF12044FF0100C4FF0000C130E04BF32
:1019500012020CF1080C130F04BF12010CF1040C5D
:10196000930F04BF92000CF1020CD30F04BF52007E
:101970000CF1010C11464FF00002A0F11F00A0EB8A
:101980000C00704711F0004F08BF704731F0004164
:101990003FF4D5AF0B0C06BF09044FF0100C4FF00D
:1019A000000C0B0E04BF09020CF1080C0B0F04BF56
:1019B00009010CF1040C8B0F04BF89000CF1020C1F
:1019C000CB0F04BF49000CF1010CCCF12003A0EBBC
:1019D0000C0022FA03F302FA0CF241EA030100F1CF
:1019E0000100704720F07F4C80EA030023F07F471E
:1019F000ACEB070303F57C5300F0004003F1FF0359
:101A00002DE980494FEA154B09B44FEA144325EA02
:101A10000B4E24EA03480FF2042606EB132749086D
:101A20003E785FEA320203FB0667C7F5000707FB53
:101A300006F64FEA54374FEAD64606F1020607FB90
:101A4000066CCCF1005C4FEA1C472CEA074C07FB04
:101A500006F40CFB06F504EB15464FEA961634BF68
:101A600000204FF000404FEAD13706FB07FC4FEA59
:101A70001C4C0CFB0BF7D21B03FB0CF761EB0701B3
:101A80000CFB0EF7B0EB074072EB17420CFB08F7AC
:101A900034BFA2EB0742B2EB074261EB17414FEABA
:101AA0000C444FEA910706FB07FC4FEA1C4C0CFB69
:101AB0000BF7B0EBC74072EB573203FB0CF734BFA8
:101AC000A2EBC742B2EBC74261EB57310CFB0EF7FA
:101AD000B0EBC70072EB57720CFB08F734BFA2EBF8
:101AE000C702B2EBC70261EB5771039F4FEA8161F6
:101AF00041EA921104EBCC044FEAD1374FEA8262FB
:101B000006FB07FC42EA90124FEA80604FEA1C4C49
:101B10000CFB0BF7D21B03FB0CF761EB07010CFB73
:101B20000EF7B0EB074072EB17420CFB08F734BF1F
:101B3000A2EB0742B2EB074261EB17414FEA8C552B
:101B40004FEA910704EB9C2406FB07FC4FEA1C4C70
:101B50000CFB0BF7B0EBC74072EB573203FB0CF7F3
:101B600034BFA2EBC742B2EBC74261EB57310CFB6B
:101B70000EF7B0EBC70072EB57720CFB08F734BFDF
:101B8000A2EBC702B2EBC70261EB577115EB4C2514
:101B90004FEA816141EA92114FEA82624FEAD137FE
:101BA00042EA901206FB07FC44F100044FEA806011
:101BB0004FEA1C4C0CFB0BF7D21B03FB0CF761EB41
:101BC00007010CFB0EF7B0EB074072EB17420CFB62
:101BD00008F734BFA2EB0742B2EB074261EB1741B3
:101BE00015EB1C154FEA813141EA92414FEA8232EE
:101BF00042EA90424FEA80304FEA0C7644F100040A
:101C000048EA03434EEA0B484FF0000EB2EB080CD3
:101C100071EB030724BF624639464EEB0E0E4FF0C0
:101C2000000B0018524149414BEB0B0BB2EB080C77
:101C300071EB03077BF1000B24BF624639464EEB84
:101C40000E0E4FF0000B0018524149414BEB0B0BAD
:101C5000B2EB080C71EB03077BF1000B24BF62466B
:101C600039464EEB0E0E51EA020718BF46F0010648
:101C700016EB0E7655F1000254F1000103D5BDE8D4
:101C80008901BDE80088BDE88901BDE80048B619B2
:101C9000524141EB0101A3F10103704780807F7E37
:101CA0007D7C7B7A797877767675747372717170D2
:101CB0006F6E6E6D6C6C6B6A6A6968686766666584
:101CC0006464636362616160605F5F5E5E5D5D5C12
:101CD0005C5B5B5A5A595958585757565655555583
:101CE0005454535352525251515050504F4F4F4EE3
:101CF0004E4D4D4D4C4C4C4B4B4B4A4A4A49494931
:101D00004848484747474746464645454544444472
:101D1000444343434342424242414141002B9C469B
:101D200030D477002BD01CB54FEA370703B44FF0FF
:101D300010004FF01001BAF1000F06D0BCF1000FF7
:101D4000DCBF40F0080040F008014FF000000FBC7D
:101D5000BDE810400BF1010BBBF1010F08BF5FEABA
:101D6000170722BF12F1010211F101014FF00041EA
:101D700043F1000300F0004043EA00007047F9D34C
:101D80005708D0E746EA064613F1400F4FEA1646D9
:101D90001FDD13F1200FDFBF16430A460021203359
:101DA0005B42BED0C3F1200746EA064602FA07F7B7
:101DB0004FEA164646EA0706C3F1200722FA03F265
:101DC00001FA07F721FA03F14FF0000342EA070294
:101DD000A7E746EA020646EA06464FEA164646EAFC
:101DE0000106BCBF46EA0646360C4FF000034FF032
:101DF00000024FF0000194E72DE9804C9A4693468B
:101E000070B491E8380007C831EA400C48BF34EAA2
:101E1000430C03D5FFF7E6FDFFF780FFF0BCBDE8FC
:101E2000008C2DE9804C9A46934670B491E83800B6
:101E300007C810F0804F08BF13F0804F03D100F0A7
:101E400005F8FFF76BFFF0BCBDE8008C20F07F4782
:101E500080EA030023F07F4C07EB0C03A3F57C53CF
:101E600000F00040A3F1FE0392F0000F00F0B380F9
:101E700095F0000F00F077802DE901494FEA1140FD
:101E80004FEA144621EA004800FB06FC24EA064714
:101E900008FB06F607FB08F800FB07F718EB0648F7
:101EA0004CEB164C4FEA124B18EB07484FEA15461D
:101EB0004CEB174022EA0B4E0BFB06FC25EA0647CB
:101EC0000EFB06F607FB0EFE0BFB07F71EEB064E9E
:101ED0004CEB164C4FF000061EEB074E4CEB174B2D
:101EE00018EB0B0840F1000018EB0E0B58EB000844
:101EF00040F100008F1A4FF000013CBFC943661B40
:101F000014BFB5EB040C00213CBFC943F61B4FEADC
:101F100017444EEA8E0E27EA04454FEA1C4704FB9D
:101F200007622CEA074C05FB07F70CFB05F604FBE0
:101F30000CFC16EB074642EB174216EB0C4642EB45
:101F40001C421BEB060658EB0202414146EA9E0684
:101F500001D5BDE80189B619524141EB0101A3F158
:101F60000103BDE801894FEA14454FEA114724EA0D
:101F7000054621EA074C05FB07F406FB07F70CFBB7
:101F800006F105FB0CFC11EB074144EB17444FEA4B
:101F9000124711EB0C4144EB1C4422EA074C05FBB1
:101FA00007F206FB07F70CFB06F605FB0CFC16EB2D
:101FB000074642EB174216EB0C4642EB1C456A18EB
:101FC00054F1000148BF7047B619524141EB01017D
:101FD000A3F10103704795F0000F37D04FEA11428B
:101FE0004FEA144721EA024624EA074C02FB07F1B4
:101FF00006FB07F70CFB06F402FB0CFC14EB074492
:1020000041EB17414FEA154714EB0C4441EB1C41DF
:1020100025EA074C02FB07F506FB07F70CFB06F663
:1020200002FB0CFC16EB074645EB174516EB0C467E
:1020300045EB1C42121951F1000148BF7047B61917
:10204000524141EB0101A3F1010370474FEA1445EE
:102050004FEA114724EA054621EA074C05FB07F140
:1020600006FB07F70CFB06F24FF0000605FB0CFC25
:1020700012EB074241EB174112EB0C4251EB1C41B2
:1020800048BF7047921841EB0101A3F1010370476B
:10209000FEE701291DD002291ED0032924D00429DE
:1020A00016D102784FF47A71303A4A43417801EB05
:1020B000C10303EB011102EB81028178A2F5965274
:1020C00001EB810102EB4101C078A1F504710844E4
:1020D000704700783038704701784078303901EB2C
:1020E000810149003039F2E702786421303A4A43ED
:1020F000817801EB8101E5E70029016802D041F018
:10210000010102E04FF6FE72114001607047406825
:1021100080B2704730B5026847F6F0739A430C6A94
:102120008B682343D1E904452C4323438C69234323
:10213000CC6923434C6A23438C6A234313430360D3
:10214000CA6842600A6882604968C16030BD7047F1
:10215000044800E0491C10F8012B002AFAD1480875
:1021600070470000CC060020F0B5CC78002204F0C7
:102170000F03E40601D58C7823430C784FF00F0C45
:1021800014F0FF0F4FF0010E1BD005680E880EFAF9
:1021900002F42640A64210D196000CFA06F725EA72
:1021A000070703FA06F5CE783D43282E02D0482EC5
:1021B00002D002E0446100E00461521C082AE5D329
:1021C00005600A88FF2A1CD94468002202F108062B
:1021D0000EFA06F50E882E40AE420ED196000CFA8D
:1021E00006F7BC4303FA06F7CE783C43282E00D10D
:1021F0004561CE78482E00D10561521C082AE5D3EE
:102200004460F0BD0246002092680A4200D00120DE
:1022100070470AB10161704741617047FEE70000F5
:1022200070B50D4C0025C4F8A4510C48016821F08C
:102230000F010160016841F007010160C4F8A0517D
:10224000022004F5D07401F047F9012060600220FB
:1022500001F042F9656070BD00802142040C01402C
:102260000020401CC0B20A28FBD3704708B50121EA
:10227000082000F067FB4FF44070ADF8000010201C
:102280008DF8030003208DF8020069460448FFF72B
:102290006BFF04480121C0F8A411C0F8A01108BDCB
:1022A000000C01400080214270B50D4C0026C4F89E
:1022B000A4610C48016821F00F010160016841F040
:1022C000070101600125C4F8A051022004F5D07473
:1022D00001F002F96560022001F0FEF8666070BD51
:1022E00000802142040C01402DE9F0478146174847
:1022F0000024016821F00F010160016841F0040130
:102300000160134E254627464FF00108C6F8A47118
:10231000022001F0E1F8C6F8A4816006040ED6F8A8
:10232000200108B1641CE4B2012001F0D5F86D1C55
:10233000EDB2082DEAD3B9F1000F04D0FFF770FF1A
:102340002046BDE8F087FFF7AFFFF9E7040C014036
:10235000008021422DE9F04105461448016821F032
:102360000F010160016841F007010160104E002774
:10237000C6F8A4713C464FF00108E809C6F8A00170
:102380006806050E022001F0A7F8C6F8A481022015
:1023900001F0A2F8C6F8A471022001F09DF8641CB7
:1023A000E4B2082CE9D3BDE8F0810000040C014040
:1023B0000080214270B50D48016821F00F010160D5
:1023C000016841F007010160094C0120C4F8A00137
:1023D000C4F8A401042004F5D07401F07DF80025B0
:1023E0002560042001F078F8656070BD040C0140A0
:1023F000008021420E4810B5016821F00F010160F4
:10240000016841F0070101600A4C0020C4F8A401F2
:10241000C4F8A001042004F5D07401F05DF8012097
:1024200060602060BDE81040042001F055B8000055
:10243000040C01400080214270B51348002401685B
:1024400021F00F010160016841F0040101600F4DAE
:102450000126C5F8A061304601F03EF8C5F8A46138
:10246000012001F039F807E0641CE4B2FA2C03D92A
:10247000FFF7C0FF012070BDD5F820010028F3D17F
:10248000C5F8A40170BD0000040C01400080214289
:1024900038B50121182000F055FA4FF40050ADF87E
:1024A000000010258DF8035003248DF80240694682
:1024B0000748FFF759FEE802ADF800008DF8035019
:1024C0008DF8024069460348FFF74EFE38BD000014
:1024D00000100140000C0140FEE7704730B50F23AB
:1024E000C27801780125F2B1144A126801F1E021A5
:1024F00002F4E062C2F5E062120AC2F10404D340C1
:102500004278A24084781C401443220181F80024C0
:10251000007800F01F018D404009800000F1E020AC
:10252000C0F8005130BD01F01F008540480980000F
:1025300000F1E020C0F8805130BD00000CED00E05B
:102540000249084302490860704700000000FA058C
:102550000CED00E00020AFF3008070B506460025CA
:1025600005F1B000C0B200F09BF9002000F098F92E
:10257000102000F095F90024304600F0A8F9641C02
:10258000E4B2822CF8D36D1CEDB2082DE8D370BDF7
:1025900038B50121082000F0D5F94020ADF8000041
:1025A00003208DF802001420084C8DF803006946C2
:1025B0002046FFF7D9FD8021ADF80010694620467E
:1025C000FFF7D2FD00F01AF838BD0000000C014002
:1025D00070B5094C0120C4F89C01C4F8980104F5B9
:1025E000CC74FFF73DFE00256560FFF739FE2560DE
:1025F000BDE87040FFF734BE0080214270B5064C44
:102600000020C4F89C010125C4F8985104F5CC744D
:10261000FFF726FE656070BD0080214270B50C4D4D
:102620000124C5F89C41FFF71BFEC5F89841FFF750
:1026300017FE80210748FFF7E5FD00B100E0002408
:102640000020C5F89801FFF70BFE204670BD000082
:1026500000802142000C014010B5FFF779FD2D49A3
:102660000860FFF795FFC82000F01AFFAE2000F0C9
:1026700017F9002000F014F9102000F011F94020A3
:1026800000F00EF9B02000F00BF9812000F008F9FD
:10269000FF2000F005F9A12000F002F9A62000F0CB
:1026A000FFF8A82000F0FCF83F2000F0F9F8C8205F
:1026B00000F0F6F8D32000F0F3F8002000F0F0F876
:1026C000D52000F0EDF8802000F0EAF8D82000F0E6
:1026D000E7F8052000F0E4F8D92000F0E1F8F12057
:1026E00000F0DEF8DA2000F0DBF8122000F0D8F875
:1026F000DB2000F0D5F8302000F0D2F88D2000F07B
:10270000CFF8142000F0CCF8BDE81040AF2000F066
:10271000C7B800005800002010B50446B031C8B258
:1027200000F0BEF8A41CC4F3031040F0100000F049
:10273000B7F804F00F00BDE8104040F0010000F0D1
:10274000AFB800002DE9F05FDFF804A190460E4617
:102750000546AAF5BE6B75E0A0293ED93C48002489
:102760008030A0F27462126832E0702D02D9002528
:10277000B61CF6B210F81430994228D100EB440789
:1027800098F801307F78BB4221D131462846FFF7C7
:10279000C3FF0027D14607EB441119F8010000F0F0
:1027A00096F87F1C102FF6D3701CC1B22846FFF795
:1027B000B3FF002707EB441101EB0900007C00F098
:1027C00086F87F1C102FF5D31035EDB202E0641CA3
:1027D0009442CAD308F1020033E07A2D02D90025D1
:1027E000B61CF6B21A488930FDF7E6FF070026D07E
:1027F00031462846FFF790FF0024D946387800017B
:10280000A0F50070011919F8010000F060F8641CCF
:10281000082CF3D3701CC1B22846FFF77DFF0024BB
:1028200038780001A0F50070011901EB0900007A69
:1028300000F04DF8641C082CF2D30835EDB208F115
:102840000100804698F80010002985D1BDE8F09F6E
:102850004C0600202DE9F0410024104E0546A0460C
:102860000127280602D5C6F89C7101E0C6F89C81B4
:10287000FFF7F6FCC6F89871FFF7F2FCC6F89881EE
:10288000072C01D1C6F89C716806050EFFF7E8FC1D
:10289000641CE4B2082CE4D3BDE8F081008021423E
:1028A00010B50446FFF794FE7820FFF7D3FFFFF73B
:1028B000B5FE0020FFF7CEFFFFF7B0FE2046FFF782
:1028C000C9FFFFF7ABFEBDE81040FFF797BE10B59C
:1028D0000446FFF77DFE7820FFF7BCFFFFF79EFE62
:1028E0004020FFF7B7FFFFF799FE2046FFF7B2FF42
:1028F000FFF794FEBDE81040FFF780BE044A0029B0
:10290000516901D0014300E08143516170470000EB
:1029100000100240044A0029D16901D0014300E0BF
:102920008143D1617047000000100240044A002931
:10293000116901D0014300E081431161704700003B
:1029400000100240044A0029916901D0014300E0CF
:10295000814391617047000000100240044A002941
:10296000D16801D0014300E08143D160704700008D
:102970000010024030B5204A5168204B11F00C0184
:1029800003D0042901D0082901D0036012E0516866
:10299000536801F470114FF0020413F4803F04EB0C
:1029A000914102D053689B0301D5154B00E0134BB6
:1029B0005943016051680F2303EA1111114B5C5C0C
:1029C0000168E14041605468072505EA14241C5D54
:1029D00021FA04F48460546805EAD4241B5DD940CC
:1029E000C1605268032303EA9232064B1B1F9A5CB4
:1029F000B1FBF2F1016130BD0010024000127A001B
:102A000000093D004C0700200CB50022264800922A
:102A10000192016841F4803101604FF4A0630168C4
:102A200001F4003101910099491C0091019911B9FB
:102A300000999942F3D10168890333D501210191AD
:102A40001A490A6842F010020A600A6822F003027A
:102A50000A600A6842F002020A6041684160416807
:102A60004160416841F480614160416821F47C111A
:102A70004160416841F4E8114160016841F08071B2
:102A8000016001688901FCD5416821F003014160C2
:102A9000416841F0020141604168C1F381010229AE
:102AA000FAD10CBD01920CBD001002400020024082
:102AB0004FF0E0210428086903D020F004000861E9
:102AC000704740F00400FAE710B502F09BFE0128C1
:102AD00003D0BDE8104002F089BB10BD0F4810B50F
:102AE000016841F00101016041680D4A11404160F7
:102AF00001680C4A11400160016821F480210160E5
:102B0000416821F4FE0141604FF41F018160FFF72D
:102B10007BFF05494FF00060086010BD00100240C7
:102B20000000FFF8FFFFF6FE08ED00E070B5154C61
:102B300040F22551204600F0B1F800280ED0204682
:102B400000F03AF9104AC1B25088030406D4440494
:102B50004FF0000306D50A2901D0538070BD40F420
:102B600000400DE00D2909D0C0F30D04074D401CB5
:102B700080B229555080C728EFD870BD40F48040FE
:102B8000508070BD003801403C070020682F0020B5
:102B900070B5184E40F22551304600F07FF8164CC3
:102BA000351D38B1288828B12888144A61685054E6
:102BB000491C616040F22441304600F06FF8002863
:102BC00016D0308828880E4D606000212846FFF717
:102BD00093FA2846FFF79BFA00216160084980209C
:102BE0006C3908672846BDE870400121FFF784BAB8
:102BF00070BD0000004400403C0700203030002041
:102C00006C0002400029818902D041F4005101E0AA
:102C100021F4005181817047002A828A01D00A4341
:102C200000E08A4382827047174910B588420AD172
:102C300001218C032046FFF791FE2046BDE810409D
:102C40000021FFF78BBE1149884202D101214C04BB
:102C500010E00F49884202D101218C040AE00D499D
:102C6000884202D10121CC0404E00B4988420AD1F8
:102C700001210C052046FFF759FE2046BDE8104013
:102C80000021FFF753BE10BD003801400044004052
:102C900000480040004C00400050004070B501F07A
:102CA0001F0501260024C1F3421306FA05F2012B89
:102CB0000FD0022B0FD0838A4FEA112100881342D4
:102CC00006FA01F600EA060001D000B10124204610
:102CD00070BD8389F0E7038AEEE710B5C1F34213B4
:102CE00001F01F040121A140012B07D0022B07D0C6
:102CF0001430002A026805D00A4304E00C30F8E7DB
:102D00001030F6E78A43026010BD000030B504467B
:102D1000008A85B00D464CF6FF710840E9880143F2
:102D20002182A0894EF6F3110840A9882A8911430F
:102D30006A8902431143A181A08A4FF6FF410840EE
:102D4000A9890143A1826846FFF714FE194884420D
:102D500001D1039800E00298A189090400EBC001A9
:102D600001EB0010296801D5490000E08900B0FBA3
:102D7000F1F06422B0FBF2F109010B096FF01805C4
:102D80006B4300EB8300A3891D044FF0320306D58B
:102D900003EBC000B0FBF2F000F0070005E003EB2E
:102DA0000010B0FBF2F000F00F000843208105B0E6
:102DB00030BD0000003801408088C0F30800704733
:102DC000FEE7000010B501218CB00846FFF796FD24
:102DD0000D4800900D48019000208021CDE90201AE
:102DE000CDE904018901CDE90801094C069007905D
:102DF0000A9069462046FFF78DF901212046FFF72A
:102E00007BF90CB010BD00000444004030300020BD
:102E10006C000240F0B5074687B04FF4A060FFF7A2
:102E20008FFB2E4D2846FFF7FFFE01214804FFF7D8
:102E300071FD01210420FFF785FD2846FFF7F4FE10
:102E40000424ADF8104003208DF812001820244E01
:102E50008DF8130004A93046FFF786F90820ADF875
:102E600010008DF8134004A93046FFF77DF90024C7
:102E7000ADF808400C20ADF80440ADF80A0000970A
:102E8000ADF80640ADF80C4069462846FFF73EFF16
:102E9000012240F224412846FFF71FFF26208DF82B
:102EA00014008DF815408DF8164001208DF817009C
:102EB00005A8FFF713FB012240212846FFF7ACFECF
:102EC000012280212846FFF7A7FEFFF77BFF0121A3
:102ED0002846FFF797FE07B0F0BD00000044004011
:102EE0000008014070B58EB00D46044616463421E8
:102EF00001A8FDF70BFD12A11348FDF767FC0028A0
:102F00001BD00A2000F0CCFA334601AA0FA10E48CC
:102F10000095FDF7C3FB12A10B48FDF757FC20B14C
:102F2000421C10A12046FDF753FA0F49002008600B
:102F300080210548FDF7C8FC01200EB070BD0000DF
:102F40002B4950440000000030300020255B5E2CEF
:102F50005D2C255B5E2C5D2C255B5E3A5D000000E0
:102F60003A000000257300004007002030B59BB0F8
:102F700034216846FDF7CAFC34210DA8FDF7C6FCD4
:102F800017A11948FDF722FC184D002488B10DAB9C
:102F90006A4617A11448FDF781FB694617A000F0A7
:102FA0003DFF802110482C60FDF78EFC01201BB0F6
:102FB00030BD18A10C48FDF709FC0028F7D00DAB77
:102FC0006A460BA10848FDF769FB694613A000F0AB
:102FD00025FF802104482C60FDF776FC0220E6E7FF
:102FE000434F4E4E454354003030002040070020F0
:102FF000255B5E2C5D2C255B5E2C5D00D3D0BFCDA8
:10300000BBA7B6CBBDD3C8EBA3AC49443D25730DDC
:103010000A000000434C4F5345440000D3D0BFCDBD
:10302000BBA7B6CBB6CFBFAAA3AC49443D25730D11
:103030000A00000000B58DB0322000F09BF810B1FE
:1030400001200DB000BD322123A000F01DF908B110
:103050000220F6E723A126A000F0E0FE27A12AA087
:1030600000F0DCFE2BA12FA000F0D8FE3421684632
:10307000FDF74CFC27A22FA16846FDF7A9F93221E4
:10308000684600F001F908B10320DAE73223042290
:103090001AA114A000F0B8F808B10420D1E7322139
:1030A00028A000F0F1F808B10520CAE7322129A0D4
:1030B00000F0EAF808B10620C3E7322125A000F0AD
:1030C000E3F808B10720BCE7322125A000F0DCF8C6
:1030D0000028B6D00820B4E741542B43574D4F4445
:1030E000453D3200455350383236362D41500000B0
:1030F00053534944A3BA25730D0A000031323334C7
:103100003536373839000000C3DCC2EBA3BA25736B
:103110000D0A00003139322E3136382E31302E3141
:10312000000000004150C8C8B5E34950A3BA257358
:103130000D0A000041542B43495041503D22257354
:103140002200000041542B4349504D4F44453D302F
:103150000000000041542B4349504D55583D31006B
:1031600041542B4349505345525645523D312C351D
:103170003035300070B5124D04460022102128462B
:10318000FFF747F84FF4FA7000F08AF90122102196
:103190002846FFF73EF80BE0642000F081F909A112
:1031A0000A48FDF713FB28B9214609A000F036FEB6
:1031B000641EF1D2002C01DC012070BD002070BD26
:1031C0000008014072656164790000003030002021
:1031D0002564200038B501210420FFF7B3FB10203F
:1031E000ADF8000003218DF80210064C8DF80300A5
:1031F00069462046FEF7B8FF012210212046FFF75E
:1032000008F838BD000801402DE9F0410E46134989
:103210000746002008601C46154680211048FDF72F
:1032200053FB2B46324639460EA001F0B7FB0BE0AC
:10323000642000F035F912A10948FDF7C7FA28B952
:10324000214610A000F0EAFD641EF1D2002C02DC41
:103250000120BDE8F0810020FBE7000040070020CE
:103260003030002041542B43575341503D222573A9
:10327000222C222573222C342C25640D0A000000F8
:103280004F4B00002564200070B5114A0C46002108
:103290000546116080210F48FDF716FB29460EA058
:1032A00001F07CFB0BE0642000F0FAF80CA1094867
:1032B000FDF78CFA28B921460AA000F0AFFD641E84
:1032C000F1D2002C01DC012070BD002070BD000097
:1032D000400700203030002025730D0A0000000058
:1032E0004F4B0000256420002DE9F0472B4F894605
:1032F000054600261C469046802129483E60FDF781
:10330000E3FA4246294627A001F048FB10E00A20D4
:1033100000F0C6F828A12248FDF758FA20B1002C89
:1033200009DC0120BDE8F087214624A000F076FDED
:10333000641EECD2F5E7802119483E60FDF7C4FA1F
:10334000002505E019F805101DA001F027FB6D1CF4
:103350004545F7DB1BE00A2000F0A2F819A1104850
:10336000FDF734FA38B180210D483E60FDF7ACFA24
:10337000002C0EDD0FE015A10948FDF727FA30B14A
:10338000802107483E60FDF79FFA0220CAE7641ECD
:10339000E1D20320C6E70020C4E700004007002078
:1033A0003030002041542B43495053454E443D2575
:1033B000642C25640D0A00003E00000025642000F6
:1033C0002563000053454E44204F4B006C696E6BE3
:1033D000206973206E6F742076616C696400000050
:1033E000490050EAC12018BF04204A0D18BF40F020
:1033F000010040F2FF72B2EB515F08BF40F00200E3
:10340000012808BF0520704730380A2801D2012062
:10341000704700207047704710B5064C0020C4F874
:10342000BC01642004F5DE7400F03AF8012020604D
:1034300010BD00000080214210B5064C0020C4F8E9
:10344000BC014FF4FA7004F5DE7400F029F8012095
:10345000206010BD0080214210B50420FFF728FB3A
:103460000C480D490D4A0068B0FBF1F3B0FBF1F1D7
:103470004FF47A7041431370012050804FF0E020E8
:10348000026942F0020202614161016941F00101F9
:10349000016110BD4400002040420F0036070020AB
:1034A00070B5044602F0AEF901280CD0094D6888C9
:1034B000844203D3B4FBF0F001F06CFC6888B4FBE9
:1034C000F0F100FB11444FF47A706043BDE87040A6
:1034D00000F002B83607002070B54FF0E02500215B
:1034E0006C69094AAB6912785043AA699A42FCD0C8
:1034F00002D2A3EB020302E0A4EB02063344194418
:1035000013468142F1D370BD3607002004490A8872
:103510005206FCD5024AC1B2121D1180704700004C
:10352000003801402DE9FE4F574C64204FF0000950
:1035300056492061564FC4E9081907F5FA634FF45C
:10354000FA7603EB8002A2F5805253F8201007EBC5
:103550008005C2F8701EA5F5805557F82020C5F8E3
:10356000702E226A914200D22162626A914200D991
:103570006162401CB04620614045E2DB4FF4C870F8
:10358000DFF810B19A462061206956460AEB8000A8
:1035900050F8040CA0625846D0F820110129FBD045
:1035A000394907203E3100F038F9374925693E3165
:1035B00008784A788007800B40EA02208A78104316
:1035C00046F82500CA780B799207920B497942EAAE
:1035D00003220A4347F82520A16A884219D9401AD4
:1035E00002F0CCFC0646D4E90810401A02F0C6FCF2
:1035F0000146304602F0E4FB274902F0D3FC206389
:1036000002F0A0FCE16A081AE0621CD5C4F82C9014
:1036100019E0081A02F0B2FC0646D4E90810401A74
:1036200002F0ACFC0146304602F0CAFB1A4902F037
:10363000B9FC206302F086FCE16A0844E062FF28DE
:1036400001DDFF20E062E078012805D1E0697828FB
:1036500002DA2070207E02E0484684F800906D1C5B
:103660006070256145458FDB074AD21C02F11901C4
:10367000501E8DE807000B1F084A0548616900F0DD
:1036800071F9BDE8FE8F000000000020FFFF03007D
:10369000640800200000214200007F433410002015
:1036A0001CB54FF44070FEF74BFFFFF7D5FE4FF40B
:1036B000E134204601F094F9FEF7EAFEFFF7ACFE94
:1036C0006420FFF7EDFEFEF7C7FFFEF743FF002182
:1036D0001EA20846FFF736F82046FFF79BFBFFF7D0
:1036E00079FD02E0C820FFF7DBFEFFF7A3FC00280E
:1036F000F8D11949086080211848FDF7E5F8FEF770
:1037000029FF00F0C7F802F0D9FA15A11748FCF715
:103710005FFE0021154A0846FFF714F814A113486C
:10372000FCF756FE114A02210020FFF70BF813495F
:103730000120CDE900010023802211A1134802F0ED
:1037400035F801F087FC00201CBD0000496E69744B
:103750002E2E2E2E2E00000040070020303000209C
:10376000D0C4C2CA3A2D2D2D2000000050080020E0
:10377000D1AAD1F53A2D2D2D200000000400002003
:1037800073746172745F7461736B0000D5470008D5
:1037900010B50446FEF70EFEAE20FEF7DBFDFEF789
:1037A0004BFE68B92046FEF7D5FDFEF745FE38B959
:1037B000FEF700FEAF20FEF7CDFDFEF73DFE18B18F
:1037C000FEF718FE002010BD0020FEF78DFD044618
:1037D000FEF76AFDFEF70EFE204610BD70B50C46E2
:1037E0000546FEF7E7FDAE20FEF7B4FDFEF724FE2A
:1037F00058B92846FEF7AEFDFEF71EFE28B9204652
:10380000FEF7A8FDFEF718FE18B1FEF7F3FD002045
:1038100070BDFEF7EFFD012070BD70B505460C468A
:103820000020FFF7B5FF0120FFF7B2FFFEF7C2FD52
:10383000AE20FEF78FFDFEF7FFFD38BB2846FEF7F2
:1038400089FDFEF7F9FD08BBFEF7B4FDAF20FEF7DA
:1038500081FDFEF7F1FDC8B90120FEF745FD20709E
:103860000120FEF741FD60700120FEF73DFDA070D4
:103870000120FEF739FDE0700120FEF735FD2071D3
:103880000020FEF731FD6071FEF7B4FDBDE8704029
:10389000FEF7B0BD08B501210420FFF753F84FF43F
:1038A0008070ADF8000048208DF8030069461A4882
:1038B000FEF75AFCFEF7DAFC00F030F8C0210220D7
:1038C000FFF78CFF00210320FFF788FF0021042071
:1038D000FFF784FF00210520FFF780FF002106206D
:1038E000FFF77CFF0F210820FFF778FF0321092055
:1038F000FFF774FF27210A20FFF770FF24210C2017
:10390000FFF76CFF24210D20FFF768FF7F211020B7
:10391000FFF764FF08BD00000008014010B540211A
:103920000920FFF75BFF4021BDE810400920FFF7A9
:1039300055BF2DE9F8418046DDE90706009017469E
:103940000C46099D404600F0CFF933463A462146E1
:10395000404600F0FCF92068A84200DB28462060C1
:10396000BDE8F8812DE9FF4FB6B00C46DDE944957E
:10397000064600219246084603E056F82020401CE7
:103980001144A042F9DBB1FBF4F10020D14A05E07B
:1039900056F820305B1A42F82030401CA042F7DB7A
:1039A000002002EB800152F820304F683B44D1E9FF
:1039B000027139441944CB1701EB9371891042F815
:1039C0002010401CB0F5F87FEBDBC34900204FF41A
:1039D000F773C04A02EB800752F820C07F68A7EB5C
:1039E0000C0741F82070401C9842F2DD002001EBEA
:1039F000800751F820207F689E463A4402EBD2723D
:103A0000521041F82020401C7045F0DBDFF8CCC29A
:103A100000208B4600210246471D08E0A2EB00086B
:103A20005BF822303CF81880521C03FB1811BA4294
:103A3000F4DB40F27A4291FBF2F14BF82010401C8B
:103A40005B46B0F5F47FE5DD00221046774653F87B
:103A50002010002900DC4942B846401C0A44404579
:103A6000F5DD40F2EF1392FBF3F00822CDE90002FE
:103A700005210291984A35A912A8FFF75AFF359AF5
:103A800000210DF1480C022A1CDB012008E00CEBA0
:103A900080075CF8203057F8047CDB1B1944401C7D
:103AA0009042F4DB521E91FBF2F041F2707191FBF7
:103AB000F0F0C9F800000120287000200DF1980EE8
:103AC000359B0AE08648C9F800000020F4E75CF85E
:103AD0002010891C4EF82010401C9842F7DB002073
:103AE000DFF8F09109E056F820207E4949F82020BF
:103AF0005AF8202041F82020401CA042F3DB002689
:103B000031461DE05EF821000122170600F1050C88
:103B1000C44514DC441F002C11DD0DF10C0B401FBB
:103B200009E059F82040BC4204DA02B100222746DD
:103B30004BF82100401C6045F3DB02B9761C491CA0
:103B40009942DFDB022E04DA3999654808600020CB
:103B5000BAE000204FF4F87C09EB800159F82040CE
:103B60004F68604A3C44D1E9027139442144CC1782
:103B700001EB9471891049F8201002EB800152F892
:103B800020304C68CB462344D1E9024121441944FA
:103B9000CB1701EB9371891042F82010401C60454F
:103BA000DADB0024204621AA002142F82010401C24
:103BB0000528F8DB00204FF4FA7205E003A951F85C
:103BC00020109142C0DC401CB042F7DB0021761E81
:103BD000009655E003A800EB81024FF07F4657683E
:103BE00050F821203346A7EB0208B8F10A0F46DD52
:103BF0001046DFF8F0900CE05BF820C09C4501DD3A
:103C00006346824659F820C0B44501DD6646054644
:103C1000401C8742F0DC59F827C059F822E05BF8D5
:103C20002770ACEB0E00A5EB020C00FB0CF090FB38
:103C3000F8FCE6445BF8220059F825C08146381AA2
:103C4000AAEB0202504390FBF8F202EB09005BF88A
:103C50002520ACEB0E0E121A0EFB03F07243C011BE
:103C6000D211002A0BDD052C09DA40B100EB8000EF
:103C7000800090FBF2F221A840F82420641C491C2B
:103C800000988142A6DB214621A800F093F804EBBE
:103C9000D4704010012821A90ADD01EB800251F8FF
:103CA000200052F8042C104400EBD070401001E0CA
:103CB00051F82000C11EB529BFF446AF07493E3177
:103CC000085C399908600120439908703AB0BDE852
:103CD000F08F0000C41F002004180020406100087D
:103CE00019FCFFFF942700202DE9F0430124002553
:103CF000DDF81C90A3F1010C0D6024E052F8247053
:103D00004F451FDD02EB840555F8045CAF4219DD19
:103D1000012500E06D1C66199E4203DA52F82680E8
:103D20004745F7D0254452F82550AF4208DD0D68CD
:103D30000F2D05DAAF006D1C0D60C451741C02E03C
:103D4000344600E0641C6445D8DBBDE8F0832DE90F
:103D5000F0431E4613460C460A68054601461846BF
:103D600000F040F84FF0FF39484619E08C46411CFE
:103D7000C6F10008216010E055F82130421C17D030
:103D800055F820209A1AB24201DC424504DA226832
:103D90009700521C2260EB51491C6145ECDB401C32
:103DA00021688142E2DC2846BDE8F04300F002B819
:103DB0004A46E7E730B5012311E050F823501A4690
:103DC00002E040F82240521E002A05DD00EB82048A
:103DD00054F8044CAC42F4DC40F822505B1C8B429B
:103DE000EBDB30BDF0B5012415E051F8246023462B
:103DF00002E041F823505B1E002B09DD01EB830537
:103E000050F8267055F8045C50F825C06745F0DC82
:103E100041F82360641C9442E7DBF0BD704700006A
:103E20002DE9F041184E0F460446F5683068001D34
:103E300000F026FE38B9306890F82C100120884038
:103E4000316981433161601C07D137B13168BDE808
:103E5000F0410E48091D00F04BBE30682C44AC42C6
:103E60004460316805D2B06BBDE8F041091D00F037
:103E700027BE706B091D00F023FEB06A844200D299
:103E8000B462BDE8F08100005C07002040340020EF
:103E90002DE9F041054600F037FE2D4EB068401C7C
:103EA000B06030682B4F10B1706930B32BE03560D3
:103EB000B068012827D1002404EB840007EB8000C0
:103EC00000F0F0FD641C202CF6D3234800F0EAFD3E
:103ED0002148143000F0E6FD1F48283000F0E2FDD4
:103EE0001D483C3000F0DEFD1B48503000F0DAFD8C
:103EF000194870631430B06305E03068E96AC06A3D
:103F0000884200D83560706A0121401C7062686484
:103F1000E86A326981401143316100EB800007EBB0
:103F20008000291D00F0E4FD00F02AFE70690028E1
:103F30000CD03068E96AC06A884207D207494FF05E
:103F400080500860BFF34F8FBFF36F8FBDE8F081E3
:103F50005C07002070310020F033002004ED00E009
:103F600010B500F0D1FD0E4C2068A0B90D4800F04E
:103F700099FD0C48143000F095FD0A48E0601430BB
:103F8000206100221021052001F046F9206010B1C7
:103F900005A100F0CBFEBDE8104000F0F1BD00002F
:103FA0009807002054340020546D72510000000026
:103FB00070B5124E124D1CE001F096F8306820B139
:103FC000002401F04DFDA4B901E00124F9E700F05F
:103FD0009BFDF068C468201D00F052FDA868401EDB
:103FE000A8606868401E686000F0CAFD204600F0C6
:103FF00052F868680028DFD170BD00002C34002022
:104000005C07002030B4026C0B46002A0BD0C1685C
:104010001144C1604468A14201D30168C16030BC51
:104020001846FCF704BC30BC70472DE9F041856BA5
:10403000174604460026026C82B1C7B1E068FCF75F
:10404000F6FBE168206C091AE1602268914202D215
:104050006168081AE060022F16D017E02068A8B93E
:10406000606801F057FC0646002060600EE0A06822
:10407000FCF7DDFB216CA0680844A0606168884201
:1040800004D32068A06001E005B16D1E6D1CA5631E
:104090003046BDE8F08110B50446006B00F0A2FD8B
:1040A0002046BDE8104000F09DBD000010484FF4D0
:1040B0008051420706D0C01D0D4920F00700411A6B
:1040C000C1F580510B4A00230144C2E900030839BD
:1040D000103A21F0070111604B600B600B1AC0E928
:1040E000001393604FF000405360D06070470000B1
:1040F0007C340020BC070020074E4FF08054074D51
:10410000FFF756FF30680128FAD92C60BFF34F8FB4
:10411000BFF36F8FF4E700007031002004ED00E082
:104120002DE9F047DDE909840E46174682469100E5
:104130009946089DA522206BFCF7BEFB6FF003019A
:10414000206B01EB8701084420F00707780705D0B2
:1041500040F22B3219A11EA0FCF72EF900202218E4
:10416000315C82F83410315C11B1401C1028F6D358
:10417000002684F84360202D00D31F25E562C4E9A2
:104180001356201D00F099FC04F1180000F095FC76
:104190002461C5F120006462A061666584F85860FE
:1041A0004A465146384600F003FB2060B8F1000F44
:1041B00001D0C8F80040BDE8F08700002E2E5C4614
:1041C00072656552544F535C7461736B732E630058
:1041D0004572726F723A25732C25640D0A00000037
:1041E00030B5114900E011460A688242FBD34B68A2
:1041F0005C18844203D1406818444860084643680C
:104200001C18944209D1084C103C2468A24209D0E1
:1042100052681A4442600A6812680260814200D003
:10422000086030BD0460F9E7BC07002070B50024C9
:1042300041600B4D0061914206D8D11A82699142CA
:1042400006D2011D286907E09A4203D2994201D3A0
:10425000012403E0011DE86800F032FC204670BD37
:104260009807002010B5044600F04EFCA06B20B16A
:10427000002400F085FC204610BD0124F9E7000071
:104280002DE9F34100980F460026846C2CB940F6C6
:10429000CE1216A11AA0FCF78FF8A06BE16B884232
:1042A00005D340F6CF1211A115A0FCF785F8A06B3D
:1042B000E16B88420CD294F945503A466946204653
:1042C000FFF7B3FE0646681C05D06D1C84F8455008
:1042D0003046BDE8FC81606A0028F9D004F1240072
:1042E00001F072FB0028F3D00126F1E72E2E5C4688
:1042F00072656552544F535C71756575652E630028
:104300004572726F723A25732C25640D0A00000005
:10431000F8B5054614480E46C068C068C468201D3C
:1043200000F0AEFBE069012817D1A0692B464119C6
:1043300032462046FFF77AFF78B100200346014657
:1043400000902A46204601F071FC30B907494FF42D
:10435000027201F11800FCF72FF8616A01B02046E3
:10436000BDE8F0400847000098070020905B000877
:1043700070B586B02F4E53E00198002806DADDE9CB
:104380000301029A90470198002849DB039C606969
:1043900010B1201D00F074FB05A800F0A7F8054639
:1043A00001980A283CD2DFE800F00505053B2738D4
:1043B00005053B270298A169034601442A46204689
:1043C000FFF734FF00282BD0616A20468847E06958
:1043D000012825D1002000900298A16900234218ED
:1043E0001946204601F022FCD0B940F2213212A138
:1043F00017A0FBF7E1FF13E00298A06128B94FF482
:104400004E720DA112A0FBF7D7FFA0692B464119F0
:104410001A462046FFF70AFF02E0204600F0E2FBC2
:1044200000231A4601A9306800F032FF0028A3D10A
:1044300006B070BD980700202E2E5C46726565524E
:10444000544F535C74696D6572732E6300000000F5
:104450004572726F723A25732C25640D0A000000B4
:10446000F8B50D46064600F03FFE684600F03EF8FF
:104470000446009810B101F0F3FAF8BD1148ADB14F
:1044800001690968D9B10025311B2A46006800F08E
:104490005FFC01F0E5FA0028EFD10B494FF08050A6
:1044A0000860BFF34F8FBFF36F8FF8BDA642EBD804
:1044B00001F0D6FA21463046FFF72AFFF8BD012564
:1044C000E2E700009807002004ED00E00648416B99
:1044D000096829B1416BC968C96849688162704738
:1044E0004FF0FF31FAE700005C07002070B5054689
:1044F00001F096F9064E0446B068844203D200F0FB
:1045000009F8012000E0002028602046B46070BD5A
:1045100098070020F8B5184E26E0C068C468056802
:10452000201D00F0ADFA616A20468847E069012845
:104530001AD1A0692844A84206D924616060211DCF
:10454000F06800F0BDFA0FE000200346014600903D
:104550002A46204601F06AFB30B9084940F29232FF
:1045600001F11800FBF728FFF06801680029D4D199
:104570003169C6E90310F8BD98070020905B000878
:1045800008484068401C04D0F42207A111A0FBF7A2
:1045900013FF502080F31188BFF34F8FBFF36F8F4D
:1045A000FEE70000C40700202E2E5C4672656552AF
:1045B000544F535C706F727461626C655C52564408
:1045C000535C41524D5F434D335C706F72742E6388
:1045D000000000004572726F723A25732C25640D3D
:1045E0000A000000084CE068016839B1002139B1C7
:1045F0000020FFF735FFFFF7BBFEF4E70121F6E7E8
:10460000C0680068F5E70000980700202DE9F04138
:10461000044600F079FA94F9455004F1240610E0BC
:10462000A06C20B100212046FFF72AFE04E0606A5A
:1046300048B1304601F0C8F908B100F047FC6D1EE2
:104640006DB2002DECDC4FF0FF3684F8456000F0D1
:1046500097FA00F059FA94F9445004F1100709E070
:10466000206948B1384601F0AFF908B100F02EFCDE
:104670006D1E6DB2002DF3DC84F84460BDE8F0419E
:1046800000F07EBA2DE9F0410546002600F02CFD31
:10469000324F386808B9FFF709FDF86805424FD175
:1046A000002D4DD0083568070BD005F00700C0F18C
:1046B00008000544680704D0BF2229A132A0FBF7F7
:1046C0007BFE002D3CD07868854239D823491031D3
:1046D0000846046801E0214604466068A84202D208
:1046E00020680028F7D13868B846844228D00E6880
:1046F0002068086060680836401B10280ED96719CA
:10470000780704D0EC2216A11FA0FBF755FE6068C5
:10471000401B786038466560FFF762FD6168D8F835
:1047200004004246401AC8F80400D8F808309842FD
:1047300000D29060D8F80C0001430020C4E90001C9
:1047400001F08EF9700705D04FF4967204A10EA007
:10475000FBF732FE3046BDE8F0810000AC070020D8
:104760002E2E5C4672656552544F535C706F7274A6
:1047700061626C655C4D656D4D616E675C6865611D
:10478000705F342E630000004572726F723A2573B9
:104790002C25640D0A0000000449086818B1086857
:1047A000026D521C02650868704700005C0700201B
:1047B00010B5031F4FF080741C601B1F21F0010116
:1047C0001960191F024B0B60143940380A6010BD84
:1047D000814500081CB500F097F90F490220CDE98A
:1047E0000001002332220DA10F4800F0DFFF0A492B
:1047F0000320091DCDE90001002332220BA10E4840
:1048000000F0D4FF04480838406800F0F9FABDE829
:104810001C4000F0B5B90000080000207461736B03
:10482000315F7461736B00003D4800087461736B05
:10483000325F7461736B0000D14800081C4CFEF7B6
:1048400071FED4F8B40180B30020C4F8B401FEF7BF
:104850008DFB184A1848511FFEF744FB08B317A1F7
:104860001548FBF7B3FFE0B1124816A13938437879
:10487000027811488030FBF7ABFD0F488030FBF722
:10488000B7FF05460B48FBF7B3FF01460948FDF7A4
:1048900000FC0949C0B24FF4FA732A468031FEF792
:1048A00023FD642000F076FAC9E7FFE70120CCE79A
:1048B0000000224239000020D00700207463704CB1
:1048C0000000000073202564202564200000000003
:1048D000244C4FF47A75217871B3607860B3632902
:1048E00001D96320207022781FA12248FBF770FDB8
:1048F0000021204A0846FDF725FF62781EA11D48C9
:10490000FBF766FD1B4A02210020FDF71BFF6078C4
:10491000502801D2FEF780FD21783C2901D20120E8
:1049200000E00020782901D9012100E0002108439E
:1049300014D0FEF781FD11E012A10E48FBF748FDEF
:1049400000210C4A0846FDF7FDFE11A10948FBF7BE
:104950003FFD084A02210020FDF7F4FE284600F042
:1049600019FAB8E700000020D0C4C2CA3A2533645F
:104970002000000050080020D1AAD1F53A25336468
:1049800020000000D0C4C2CA3A2D2D2D2000000006
:10499000D1AAD1F53A2D2D2D200000000FB40E48DC
:1049A00070B505AA0499FBF7F5FC0B48FBF720FF4F
:1049B0000A4A11884906FCD5084D0021064C2D1DD8
:1049C00005E0635C2B8013885B06FCD5491C8142A3
:1049D000F7D370BC5DF814FBB030002000440040F9
:1049E00070B5054686B0012144F20400FDF7AAFF28
:1049F0004FF40070ADF8100003248DF81240182019
:104A00001D4E8DF8130004A93046FDF7ADFB30159F
:104A1000ADF8100004208DF8130004A93046FDF70E
:104A2000A3FB25208DF814008DF815408DF8164055
:104A300001208DF8170005A8FDF750FD0020ADF806
:104A40000400ADF80600ADF80800ADF80C000C202D
:104A50000A4CADF80A00009569462046FEF756F963
:104A6000012240F225512046FEF737F90121204668
:104A7000FEF7C8F806B070BD0008014000380140DC
:104A8000D0E9013201699A60D0E901235A604A688D
:104A9000824201D182684A60002202610868401E99
:104AA0000860704700F108014FF0FF32C0E90112C1
:104AB000C160016100210160704700210161704700
:104AC00030B50C68621C02D000F1080202E00269F5
:104AD00004E01A4653681D68A542FAD953684B6032
:104AE00099608A60516008610168491C016030BDAD
:104AF00042684A6093688B6093685960916008616E
:104B00000168491C01607047502080F31188BFF391
:104B10004F8FBFF36F8F09494868401C48600128D8
:104B20000AD10748006810F0FF0F05D04FF4BD729E
:104B300004A10FA0FBF740BC70470000C407002091
:104B400004ED00E02E2E5C4672656552544F535CB6
:104B5000706F727461626C655C525644535C415272
:104B60004D5F434D335C706F72742E630000000024
:104B70004572726F723A25732C25640D0A0000008D
:104B800010B5084C606828B940F2811206A111A046
:104B9000FBF712FC6068401E606001D180F3118851
:104BA00010BD0000C40700202E2E5C4672656552C1
:104BB000544F535C706F727461626C655C52564402
:104BC000535C41524D5F434D335C706F72742E6382
:104BD000000000004572726F723A25732C25640D37
:104BE0000A00000070B500282AD0164DA0F1080474
:104BF0006068E968084205D14FF4A07212A11CA0B8
:104C0000FBF7DAFB206828B140F241120EA118A090
:104C1000FBF7D2FB6068E968084211D02268002ADD
:104C20000ED18843606000F05FFA606869680844EC
:104C300068602046FFF7D4FABDE8704000F010BF6E
:104C400070BD0000AC0700202E2E5C4672656552D8
:104C5000544F535C706F727461626C655C4D656D2E
:104C60004D616E675C686561705F342E63000000A3
:104C70004572726F723A25732C25640D0A0000008C
:104C800006484FF47A710068B0FBF1F14FF0E02074
:104C9000491E416107210161704700004400002066
:104CA00010B5FBF751FB104C10280CD300F1E0209D
:104CB00090F8F0032178884205D24FF42A720BA1B4
:104CC00015A0FBF779FB18480068A16800F4E060C4
:104CD000884207D9BDE810404FF42E7203A10EA000
:104CE000FBF76ABB10BD0000C40700202E2E5C46F7
:104CF00072656552544F535C706F727461626C657B
:104D00005C525644535C41524D5F434D335C706F6F
:104D100072742E63000000004572726F723A257340
:104D20002C25640D0A0000000CED00E010B5074BC7
:104D3000002253F832401CB1521C082AF9D310BD8E
:104D400043F8321003EBC201486010BD303100203F
:104D500070B515460E460446FFF7D6FE94F944108A
:104D60000020491C01D184F8440094F94510491CE5
:104D700001D184F84500FFF703FFA06B28B92A464C
:104D8000314604F1240000F0D1F82046BDE870401F
:104D9000FFF73CBC10B5040012D00E49096B29B1D5
:104DA00040F2CF420CA111A0FBF706FB00F09CF9EA
:104DB00000212046FFF734F800F052FE002807D10A
:104DC0000E494FF080500860BFF34F8FBFF36F8FD5
:104DD00010BD00005C0700202E2E5C4672656552F7
:104DE000544F535C7461736B732E63004572726F22
:104DF000723A25732C25640D0A00000004ED00E0D2
:104E000070B50446FFF780FE234D04B92C68201DC1
:104E1000FFF736FE58B9E06A204A00EB800152F8ED
:104E2000211021B901218140286988432861A06AA5
:104E300018B104F11800FFF723FE686A401C68628D
:104E40002868844207D1211D1548FFF751FE686884
:104E5000401C686007E0A868401EA8602046FFF775
:104E60001AF9FFF733FBFFF78BFE6869002812D0B1
:104E7000286884420FD1286B28B140F2654209A10D
:104E80000DA0FBF799FA10494FF080500860BFF36E
:104E90004F8FBFF36F8F70BD5C0700207031002013
:104EA0002C3400202E2E5C4672656552544F535CA4
:104EB0007461736B732E63004572726F723A25735F
:104EC0002C25640D0A00000004ED00E001490120DA
:104ED000C86170475C07002070B50D46040005D11D
:104EE00040F6063207A10CA0FBF766FA0E480168EF
:104EF00020461831FFF7E4FD2846BDE87040012147
:104F0000FEF78EBF2E2E5C4672656552544F535C81
:104F10007461736B732E63004572726F723A2573FE
:104F20002C25640D0A0000005C07002070B51446B3
:104F30000E46050005D140F6313209A10DA0FBF760
:104F40003BFA1048016828461831FFF7D1FD0CB133
:104F50004FF0FF3621463046BDE87040FEF760BF97
:104F60002E2E5C4672656552544F535C7461736BB0
:104F7000732E63004572726F723A25732C25640D8F
:104F80000A0000005C07002070B5040039D01D4DF8
:104F9000E06A2968C96A884233D2A069002804DB24
:104FA0002868C06AC0F12000A061E06A164E00EBDC
:104FB0008000616906EB800081421FD1201DFFF750
:104FC0005FFD012150B9E06A00EB800256F8222013
:104FD00022B92A6901FA00F082432A612868C06A6E
:104FE000E0622A6981401143296100EB800006EBF1
:104FF0008000211DBDE87040FFF77ABD2868C06AB7
:10500000E06270BD5C0700207031002010B5040024
:1050100005D140F6C13205A109A0FBF7CDF90C4836
:10502000016A2160C068606010BD00002E2E5C46E1
:1050300072656552544F535C7461736B732E6300D9
:105040004572726F723A25732C25640D0A000000B8
:105050005C0700201CB517480024CDE9004023461A
:10506000822215A1164800F0A1FB012803D100F00F
:10507000A3FD01280AD0401C1BD102B040F284726B
:10508000BDE810400FA114A0FBF796B9502080F3A3
:105090001188BFF34F8FBFF36F8F06484FF0FF317A
:1050A0002C38816201214161C460BDE81C4000F0E0
:1050B00061B81CBD8807002049444C450000000031
:1050C000F94000082E2E5C4672656552544F535CC1
:1050D0007461736B732E63004572726F723A25733D
:1050E0002C25640D0A0000000248016B491C016375
:1050F000704700005C07002070B5134D286B10B19D
:105100000120E86170BD0020E86128690F4EB0FA07
:1051100080F0C0F11F0000EB800456F8240028B98D
:1051200040F6F6220AA10FA0FBF746F906EB840031
:1051300000F10802416849684160914201D1496823
:105140004160C868286070BD5C0700207031002095
:105150002E2E5C4672656552544F535C7461736BBE
:10516000732E63004572726F723A25732C25640D9D
:105170000A0000001CB51A4908780190FF20087049
:1051800008788DF800009DF80000164A00F05000E5
:1051900010700720906007E09068401E90609DF8B6
:1051A000000040008DF800009DF800000006F3D4D8
:1051B000107A000200F4E0609060019808700A48DC
:1051C000016841F470010160016841F070410160C3
:1051D000FFF756FD00205060FBF780F800201CBD53
:1051E00000E400E0C407002020ED00E010B55020EE
:1051F00080F31188BFF34F8FBFF36F8F00F016FB62
:1052000018B104494FF080500860002080F31188E5
:1052100010BD000004ED00E02DE9F04117460E46F8
:10522000050005D14FF4C47210A115A0FBF7C4F816
:10523000BEB105FB06F05430FFF724FA04000ED08F
:1052400004F154007EB12060C4E90F5620460121CC
:1052500000F0E0F884F8507000212046A164BDE819
:10526000F0810020E7E72460EEE700002E2E5C4688
:1052700072656552544F535C71756575652E630098
:105280004572726F723A25732C25640D0A00000076
:105290002DE9FF4F83B09B468A4604004FF000067D
:1052A00005D140F2DC4251A155A0FBF785F8BAF1D7
:1052B000000F07D1206C28B140F2DD424BA150A075
:1052C000FBF77AF800F09EFA38B9059828B14FF448
:1052D0009C6246A14AA0FBF76FF84FF000094FF01F
:1052E0008057DFF82C81FFF70FFCA56B45B35146C3
:1052F0002046E668FEF786FEBBF1000F13D0E6609D
:10530000606A50B104F1240000F05EFB28B1C8F8D7
:105310000070BFF34F8FBFF36F8FFFF731FC012099
:1053200007B0BDE8F08F6D1EA563206810B9FFF7C8
:1053300033FA606020690028EFD004F11000E3E741
:10534000059808B11EB106E0FFF71AFC27E0684691
:10535000FFF75CFE0126FFF713FCFFF7C5FEFFF722
:10536000D3FB94F94400401C01D184F8449094F993
:105370004500401C01D184F84590FFF701FC05A9C8
:10538000684600F0CFF9002820460AD0FFF73EF922
:1053900000F066FB2046FEF765FF0028A3D0002042
:1053A000BEE7FEF75FFFD8B1206830B9FFF7ACFB6E
:1053B0006068FFF7E9FDFFF7E3FB04F124000599BE
:1053C000FFF78AFD2046FFF721F900F049FB00288E
:1053D00089D1C8F80070BFF34F8FBFF36F8F82E79A
:1053E0002046FFF713F900F03BFB7CE72E2E5C46CE
:1053F00072656552544F535C71756575652E630017
:105400004572726F723A25732C25640D0A000000F4
:1054100004ED00E070B50D46040005D140F21B120A
:105420001CA121A0FAF7C8FFFFF76EFBD4E90F20FB
:10543000216802FB001161600021A1632168A16065
:105440000A46D4E90F01401E00FB0121E16021461C
:105450004FF0FF3001F8440F487004F110004DB1D7
:10546000FFF720FB04F12400FFF71CFBFFF788FB8C
:10547000012070BD21690029F8D000F0A5FA0028AC
:10548000F4D00D494FF080500860BFF34F8FBFF349
:105490006F8FEBE72E2E5C4672656552544F535C5E
:1054A00071756575652E63004572726F723A25736A
:1054B0002C25640D0A00000004ED00E02DE9FF4FEB
:1054C00083B099468B4604004FF0000605D140F2A8
:1054D000D92252A156A0FAF76FFFBBF1000F07D1F6
:1054E000206C28B140F2DA224CA151A0FAF764FFF7
:1054F000B9F1020F08D1E06B012805D040F2DB22A0
:1055000046A14BA0FAF758FF00F07CF938B905988E
:1055100028B140F2DE2241A145A0FAF74DFF4FF03D
:10552000000A4FF08057DFF81881FFF7EDFAA06B03
:10553000E16B884206D3B9F1020F03D0059800B39E
:1055400016B325E04A4659462046FEF76EFDA16C8B
:1055500021B149462046FEF793FE05E0616A19B184
:1055600004F1240000F030FA28B1C8F80070BFF34D
:105570004F8FBFF36F8FFFF703FB012007B0BDE82C
:10558000F08FFFF7FDFA21E06846FFF73FFD0126A7
:10559000FFF7F6FAFFF7A8FDFFF7B6FA94F9440013
:1055A000401C01D184F844A094F94500401C01D16D
:1055B00084F845A0FFF7E4FA05A9684600F0B2F8C0
:1055C00030B12046FFF722F800F04AFA0020D5E774
:1055D000FFF79AFAA06BE16B884201D1012500E048
:1055E0000025FFF7CDFA95B104F110000599FFF7FA
:1055F00073FC2046FFF70AF800F032FA002894D135
:10560000C8F80070BFF34F8FBFF36F8F8DE7204650
:10561000FEF7FCFF00F024FA87E700002E2E5C4620
:1056200072656552544F535C71756575652E6300E4
:105630004572726F723A25732C25640D0A000000C2
:1056400004ED00E02DE9F047984615468946040030
:1056500005D140F29F322AA12EA0FAF7ADFEB9F192
:10566000000F07D1206C28B14FF4687224A129A043
:10567000FAF7A2FEB8F1020F08D1E06B012805D0BD
:1056800040F2A1321EA123A0FAF796FEFFF708FB15
:105690005020EFF3118780F31188BFF34F8FBFF3D2
:1056A0006F8FA06BE16B884207D3B8F1020F04D073
:1056B000002087F31188BDE8F08794F945604246E1
:1056C00049462046FEF7B1FC701C04D0761C84F8D5
:1056D00045600120EDE7A06C012620B1414620463F
:1056E000FEF7CEFD06E0606A0028F2D004F1240047
:1056F00000F06AF90028ECD0002DEAD02E60E8E72F
:105700002E2E5C4672656552544F535C71756575FB
:10571000652E63004572726F723A25732C25640DF5
:105720000A00000070B50D46040005D140F6CB32EA
:1057300014A119A0FAF740FE2DB940F6CC3211A100
:1057400015A0FAF739FEFFF7DFF9174AD068296884
:105750004B1C0FD02368126A934202D062688242C7
:105760000AD96268801A884206D2081A2860204640
:10577000FFF74CFC002400E00124FFF701FA20466B
:1057800070BD00002E2E5C4672656552544F535C0E
:105790007461736B732E63004572726F723A257376
:1057A0002C25640D0A0000005C0700202DE9FF5F36
:1057B0008346DDE90E87994616468A469000FEF735
:1057C00061FF05001AD05C20FEF75CFF040012D0D8
:1057D00025630021CDE90241CDE900874B463246E1
:1057E00051465846FEF79CFC2046FEF751FB01202F
:1057F00004B0BDE8F09F2846FFF7F4F94FF0FF3002
:10580000F6E700000548416919B1006B18B10020A6
:105810007047012070470220704700005C0700209D
:105820000148C068704700005C0700202DE9F04186
:105830002D4F0026386B40B1B869401CB861F8693B
:1058400000B101263046BDE8F081FD686D1CFD60A9
:1058500011D1786B006828B140F6D91223A128A095
:10586000FAF7AAFD786BB96B7963B863386A401CA4
:105870003862FEF72BFEB86ADFF89480854209D3C0
:10588000786B006880B1786BC068C46860688542D6
:105890000DD2B8623868C06A00EB800158F8210068
:1058A0000128CCD90126CAE74FF0FF30F1E7201DCF
:1058B000FFF7E6F8A06A18B104F11800FFF7E0F866
:1058C000E06A01213A6981401143396100EB8001AE
:1058D00008EB8100211DFFF70BF9E06A3968C96AFE
:1058E0008842CDD30126CBE75C0700202E2E5C46F4
:1058F00072656552544F535C7461736B732E630011
:105900004572726F723A25732C25640D0A000000EF
:105910007031002070B504004FF000063CD01F4DE0
:105920002868844205D040F6C7621DA121A0FAF77D
:1059300043FD206D28B940F6C96219A11DA0FAF7F0
:105940003BFD206D401E2065E26CE16A914223D050
:1059500010BB201DFFF794F81A49012250B9E06AE4
:1059600000EB800351F8233023B92B6902FA00F0D1
:1059700083432B61E06CE062C0F12000A061E06A2B
:105980002B6982401A432A6100EB800001EB800002
:10599000211DFFF7ADF80126304670BD5C070020E1
:1059A0002E2E5C4672656552544F535C7461736B66
:1059B000732E63004572726F723A25732C25640D45
:1059C0000A000000703100202DE9F041C068C46871
:1059D0002CB940F6613216A11AA0FAF7EDFC04F1D9
:1059E00018000746FFF74CF81A4D286B012660B1E6
:1059F00039461948FFF77CF8E06A2968C96A884285
:105A000013D90120EE61BDE8F081201DFFF738F8C1
:105A1000E06A2A6906FA00F1114329610F4900EB97
:105A2000800001EB8000211DE4E70020EBE700008F
:105A30002E2E5C4672656552544F535C7461736BD5
:105A4000732E63004572726F723A25732C25640DB4
:105A50000A0000005C07002018340020703100208C
:105A60002DE9F0472B4D00242746286B28B94FF429
:105A7000FD6229A12DA0FAF79FFCFFF745F8286BDE
:105A8000401E2863286BE8BBA8682C490126C8B3D0
:105A9000A1F52A798846D8F80010E9B1D8F80C00A9
:105AA000C46804F11800FEF7EBFF201DFEF7E8FFC5
:105AB000E06A2A6906FA00F11143296100EB8001CE
:105AC00009EB8100211DFFF713F8E06A2968C96A14
:105AD0008842E0D3EE61DEE70CB1FEF7F7FCAC697B
